{
  "_format": "hh-sol-artifact-1",
  "contractName": "EndlessHaiku",
  "sourceName": "contracts/EndlessHaiku.sol",
  "abi": [
    {
      "inputs": [],
      "stateMutability": "nonpayable",
      "type": "constructor"
    },
    {
      "anonymous": false,
      "inputs": [
        {
          "indexed": true,
          "internalType": "address",
          "name": "owner",
          "type": "address"
        },
        {
          "indexed": true,
          "internalType": "address",
          "name": "approved",
          "type": "address"
        },
        {
          "indexed": true,
          "internalType": "uint256",
          "name": "tokenId",
          "type": "uint256"
        }
      ],
      "name": "Approval",
      "type": "event"
    },
    {
      "anonymous": false,
      "inputs": [
        {
          "indexed": true,
          "internalType": "address",
          "name": "owner",
          "type": "address"
        },
        {
          "indexed": true,
          "internalType": "address",
          "name": "operator",
          "type": "address"
        },
        {
          "indexed": false,
          "internalType": "bool",
          "name": "approved",
          "type": "bool"
        }
      ],
      "name": "ApprovalForAll",
      "type": "event"
    },
    {
      "anonymous": false,
      "inputs": [
        {
          "indexed": true,
          "internalType": "address",
          "name": "owner",
          "type": "address"
        },
        {
          "indexed": true,
          "internalType": "uint256",
          "name": "tokenId",
          "type": "uint256"
        },
        {
          "indexed": false,
          "internalType": "string",
          "name": "tokenURI",
          "type": "string"
        }
      ],
      "name": "NFTMinted",
      "type": "event"
    },
    {
      "anonymous": false,
      "inputs": [
        {
          "indexed": true,
          "internalType": "address",
          "name": "from",
          "type": "address"
        },
        {
          "indexed": true,
          "internalType": "address",
          "name": "to",
          "type": "address"
        },
        {
          "indexed": true,
          "internalType": "uint256",
          "name": "tokenId",
          "type": "uint256"
        }
      ],
      "name": "Transfer",
      "type": "event"
    },
    {
      "inputs": [],
      "name": "PRICE_PER_TOKEN",
      "outputs": [
        {
          "internalType": "uint256",
          "name": "",
          "type": "uint256"
        }
      ],
      "stateMutability": "view",
      "type": "function"
    },
    {
      "inputs": [
        {
          "internalType": "address",
          "name": "to",
          "type": "address"
        },
        {
          "internalType": "uint256",
          "name": "tokenId",
          "type": "uint256"
        }
      ],
      "name": "approve",
      "outputs": [],
      "stateMutability": "nonpayable",
      "type": "function"
    },
    {
      "inputs": [
        {
          "internalType": "address",
          "name": "owner",
          "type": "address"
        }
      ],
      "name": "balanceOf",
      "outputs": [
        {
          "internalType": "uint256",
          "name": "",
          "type": "uint256"
        }
      ],
      "stateMutability": "view",
      "type": "function"
    },
    {
      "inputs": [
        {
          "internalType": "uint256",
          "name": "tokenId",
          "type": "uint256"
        }
      ],
      "name": "getApproved",
      "outputs": [
        {
          "internalType": "address",
          "name": "",
          "type": "address"
        }
      ],
      "stateMutability": "view",
      "type": "function"
    },
    {
      "inputs": [
        {
          "internalType": "address",
          "name": "owner",
          "type": "address"
        },
        {
          "internalType": "address",
          "name": "operator",
          "type": "address"
        }
      ],
      "name": "isApprovedForAll",
      "outputs": [
        {
          "internalType": "bool",
          "name": "",
          "type": "bool"
        }
      ],
      "stateMutability": "view",
      "type": "function"
    },
    {
      "inputs": [
        {
          "internalType": "string",
          "name": "word",
          "type": "string"
        }
      ],
      "name": "mintNFT",
      "outputs": [],
      "stateMutability": "nonpayable",
      "type": "function"
    },
    {
      "inputs": [],
      "name": "name",
      "outputs": [
        {
          "internalType": "string",
          "name": "",
          "type": "string"
        }
      ],
      "stateMutability": "view",
      "type": "function"
    },
    {
      "inputs": [
        {
          "internalType": "uint256",
          "name": "tokenId",
          "type": "uint256"
        }
      ],
      "name": "ownerOf",
      "outputs": [
        {
          "internalType": "address",
          "name": "",
          "type": "address"
        }
      ],
      "stateMutability": "view",
      "type": "function"
    },
    {
      "inputs": [
        {
          "internalType": "address",
          "name": "from",
          "type": "address"
        },
        {
          "internalType": "address",
          "name": "to",
          "type": "address"
        },
        {
          "internalType": "uint256",
          "name": "tokenId",
          "type": "uint256"
        }
      ],
      "name": "safeTransferFrom",
      "outputs": [],
      "stateMutability": "nonpayable",
      "type": "function"
    },
    {
      "inputs": [
        {
          "internalType": "address",
          "name": "from",
          "type": "address"
        },
        {
          "internalType": "address",
          "name": "to",
          "type": "address"
        },
        {
          "internalType": "uint256",
          "name": "tokenId",
          "type": "uint256"
        },
        {
          "internalType": "bytes",
          "name": "data",
          "type": "bytes"
        }
      ],
      "name": "safeTransferFrom",
      "outputs": [],
      "stateMutability": "nonpayable",
      "type": "function"
    },
    {
      "inputs": [
        {
          "internalType": "address",
          "name": "operator",
          "type": "address"
        },
        {
          "internalType": "bool",
          "name": "approved",
          "type": "bool"
        }
      ],
      "name": "setApprovalForAll",
      "outputs": [],
      "stateMutability": "nonpayable",
      "type": "function"
    },
    {
      "inputs": [
        {
          "internalType": "bytes4",
          "name": "interfaceId",
          "type": "bytes4"
        }
      ],
      "name": "supportsInterface",
      "outputs": [
        {
          "internalType": "bool",
          "name": "",
          "type": "bool"
        }
      ],
      "stateMutability": "view",
      "type": "function"
    },
    {
      "inputs": [],
      "name": "symbol",
      "outputs": [
        {
          "internalType": "string",
          "name": "",
          "type": "string"
        }
      ],
      "stateMutability": "view",
      "type": "function"
    },
    {
      "inputs": [],
      "name": "tokenIdCounter",
      "outputs": [
        {
          "internalType": "uint256",
          "name": "",
          "type": "uint256"
        }
      ],
      "stateMutability": "view",
      "type": "function"
    },
    {
      "inputs": [
        {
          "internalType": "uint256",
          "name": "tokenId",
          "type": "uint256"
        }
      ],
      "name": "tokenURI",
      "outputs": [
        {
          "internalType": "string",
          "name": "",
          "type": "string"
        }
      ],
      "stateMutability": "view",
      "type": "function"
    },
    {
      "inputs": [
        {
          "internalType": "address",
          "name": "from",
          "type": "address"
        },
        {
          "internalType": "address",
          "name": "to",
          "type": "address"
        },
        {
          "internalType": "uint256",
          "name": "tokenId",
          "type": "uint256"
        }
      ],
      "name": "transferFrom",
      "outputs": [],
      "stateMutability": "nonpayable",
      "type": "function"
    }
  ],
  "bytecode": "0x608060405260006007553480156200001657600080fd5b506040518060400160405280600d81526020017f456e646c657373204861696b75000000000000000000000000000000000000008152506040518060400160405280600581526020017f4841494b55000000000000000000000000000000000000000000000000000000815250816000908162000094919062000329565b508060019081620000a6919062000329565b50505062000410565b600081519050919050565b7f4e487b7100000000000000000000000000000000000000000000000000000000600052604160045260246000fd5b7f4e487b7100000000000000000000000000000000000000000000000000000000600052602260045260246000fd5b600060028204905060018216806200013157607f821691505b602082108103620001475762000146620000e9565b5b50919050565b60008190508160005260206000209050919050565b60006020601f8301049050919050565b600082821b905092915050565b600060088302620001b17fffffffffffffffffffffffffffffffffffffffffffffffffffffffffffffffff8262000172565b620001bd868362000172565b95508019841693508086168417925050509392505050565b6000819050919050565b6000819050919050565b60006200020a62000204620001fe84620001d5565b620001df565b620001d5565b9050919050565b6000819050919050565b6200022683620001e9565b6200023e620002358262000211565b8484546200017f565b825550505050565b600090565b6200025562000246565b620002628184846200021b565b505050565b5b818110156200028a576200027e6000826200024b565b60018101905062000268565b5050565b601f821115620002d957620002a3816200014d565b620002ae8462000162565b81016020851015620002be578190505b620002d6620002cd8562000162565b83018262000267565b50505b505050565b600082821c905092915050565b6000620002fe60001984600802620002de565b1980831691505092915050565b6000620003198383620002eb565b9150826002028217905092915050565b6200033482620000af565b67ffffffffffffffff81111562000350576200034f620000ba565b5b6200035c825462000118565b620003698282856200028e565b600060209050601f831160018114620003a157600084156200038c578287015190505b6200039885826200030b565b86555062000408565b601f198416620003b1866200014d565b60005b82811015620003db57848901518255600182019150602085019450602081019050620003b4565b86831015620003fb5784890151620003f7601f891682620002eb565b8355505b6001600288020188555050505b505050505050565b612f8080620004206000396000f3fe608060405234801561001057600080fd5b50600436106101005760003560e01c8063833b949911610097578063b88d4fde11610066578063b88d4fde146102ad578063c87b56dd146102c9578063e985e9c5146102f9578063fb37e8831461032957610100565b8063833b94991461023757806395d89b411461025557806398bdf6f514610273578063a22cb4651461029157610100565b806323b872dd116100d357806323b872dd1461019f57806342842e0e146101bb5780636352211e146101d757806370a082311461020757610100565b806301ffc9a71461010557806306fdde0314610135578063081812fc14610153578063095ea7b314610183575b600080fd5b61011f600480360381019061011a9190611ce2565b610345565b60405161012c9190611d2a565b60405180910390f35b61013d610427565b60405161014a9190611dd5565b60405180910390f35b61016d60048036038101906101689190611e2d565b6104b9565b60405161017a9190611e9b565b60405180910390f35b61019d60048036038101906101989190611ee2565b6104ff565b005b6101b960048036038101906101b49190611f22565b610616565b005b6101d560048036038101906101d09190611f22565b610676565b005b6101f160048036038101906101ec9190611e2d565b610696565b6040516101fe9190611e9b565b60405180910390f35b610221600480360381019061021c9190611f75565b61071c565b60405161022e9190611fb1565b60405180910390f35b61023f6107d3565b60405161024c9190611fb1565b60405180910390f35b61025d6107df565b60405161026a9190611dd5565b60405180910390f35b61027b610871565b6040516102889190611fb1565b60405180910390f35b6102ab60048036038101906102a69190611ff8565b610877565b005b6102c760048036038101906102c2919061216d565b61088d565b005b6102e360048036038101906102de9190611e2d565b6108ef565b6040516102f09190611dd5565b60405180910390f35b610313600480360381019061030e91906121f0565b610901565b6040516103209190611d2a565b60405180910390f35b610343600480360381019061033e91906122d1565b610995565b005b60007f80ac58cd000000000000000000000000000000000000000000000000000000007bffffffffffffffffffffffffffffffffffffffffffffffffffffffff1916827bffffffffffffffffffffffffffffffffffffffffffffffffffffffff1916148061041057507f5b5e139f000000000000000000000000000000000000000000000000000000007bffffffffffffffffffffffffffffffffffffffffffffffffffffffff1916827bffffffffffffffffffffffffffffffffffffffffffffffffffffffff1916145b80610420575061041f82610a65565b5b9050919050565b60606000805461043690612349565b80601f016020809104026020016040519081016040528092919081815260200182805461046290612349565b80156104af5780601f10610484576101008083540402835291602001916104af565b820191906000526020600020905b81548152906001019060200180831161049257829003601f168201915b5050505050905090565b60006104c482610acf565b6004600083815260200190815260200160002060009054906101000a900473ffffffffffffffffffffffffffffffffffffffff169050919050565b600061050a82610696565b90508073ffffffffffffffffffffffffffffffffffffffff168373ffffffffffffffffffffffffffffffffffffffff160361057a576040517f08c379a0000000000000000000000000000000000000000000000000000000008152600401610571906123ec565b60405180910390fd5b8073ffffffffffffffffffffffffffffffffffffffff16610599610b1a565b73ffffffffffffffffffffffffffffffffffffffff1614806105c857506105c7816105c2610b1a565b610901565b5b610607576040517f08c379a00000000000000000000000000000000000000000000000000000000081526004016105fe9061247e565b60405180910390fd5b6106118383610b22565b505050565b610627610621610b1a565b82610bdb565b610666576040517f08c379a000000000000000000000000000000000000000000000000000000000815260040161065d90612510565b60405180910390fd5b610671838383610c70565b505050565b6106918383836040518060200160405280600081525061088d565b505050565b6000806106a283610f69565b9050600073ffffffffffffffffffffffffffffffffffffffff168173ffffffffffffffffffffffffffffffffffffffff1603610713576040517f08c379a000000000000000000000000000000000000000000000000000000000815260040161070a9061257c565b60405180910390fd5b80915050919050565b60008073ffffffffffffffffffffffffffffffffffffffff168273ffffffffffffffffffffffffffffffffffffffff160361078c576040517f08c379a00000000000000000000000000000000000000000000000000000000081526004016107839061260e565b60405180910390fd5b600360008373ffffffffffffffffffffffffffffffffffffffff1673ffffffffffffffffffffffffffffffffffffffff168152602001908152602001600020549050919050565b67011c37937e08000081565b6060600180546107ee90612349565b80601f016020809104026020016040519081016040528092919081815260200182805461081a90612349565b80156108675780601f1061083c57610100808354040283529160200191610867565b820191906000526020600020905b81548152906001019060200180831161084a57829003601f168201915b5050505050905090565b60075481565b610889610882610b1a565b8383610fa6565b5050565b61089e610898610b1a565b83610bdb565b6108dd576040517f08c379a00000000000000000000000000000000000000000000000000000000081526004016108d490612510565b60405180910390fd5b6108e984848484611112565b50505050565b60606108fa8261116e565b9050919050565b6000600560008473ffffffffffffffffffffffffffffffffffffffff1673ffffffffffffffffffffffffffffffffffffffff16815260200190815260200160002060008373ffffffffffffffffffffffffffffffffffffffff1673ffffffffffffffffffffffffffffffffffffffff16815260200190815260200160002060009054906101000a900460ff16905092915050565b61099e81611280565b6109dd576040517f08c379a00000000000000000000000000000000000000000000000000000000081526004016109d4906126a0565b60405180910390fd5b60006007600081546109ee906126ef565b9190508190559050610a0033826113bc565b610a0a81836113da565b803373ffffffffffffffffffffffffffffffffffffffff167fd35bb95e09c04b219e35047ce7b7b300e3384264ef84a40456943dbc0fc17c14610a4c846108ef565b604051610a599190611dd5565b60405180910390a35050565b60007f01ffc9a7000000000000000000000000000000000000000000000000000000007bffffffffffffffffffffffffffffffffffffffffffffffffffffffff1916827bffffffffffffffffffffffffffffffffffffffffffffffffffffffff1916149050919050565b610ad881611447565b610b17576040517f08c379a0000000000000000000000000000000000000000000000000000000008152600401610b0e9061257c565b60405180910390fd5b50565b600033905090565b816004600083815260200190815260200160002060006101000a81548173ffffffffffffffffffffffffffffffffffffffff021916908373ffffffffffffffffffffffffffffffffffffffff160217905550808273ffffffffffffffffffffffffffffffffffffffff16610b9583610696565b73ffffffffffffffffffffffffffffffffffffffff167f8c5be1e5ebec7d5bd14f71427d1e84f3dd0314c0f7b2291e5b200ac8c7c3b92560405160405180910390a45050565b600080610be783610696565b90508073ffffffffffffffffffffffffffffffffffffffff168473ffffffffffffffffffffffffffffffffffffffff161480610c295750610c288185610901565b5b80610c6757508373ffffffffffffffffffffffffffffffffffffffff16610c4f846104b9565b73ffffffffffffffffffffffffffffffffffffffff16145b91505092915050565b8273ffffffffffffffffffffffffffffffffffffffff16610c9082610696565b73ffffffffffffffffffffffffffffffffffffffff1614610ce6576040517f08c379a0000000000000000000000000000000000000000000000000000000008152600401610cdd906127a9565b60405180910390fd5b600073ffffffffffffffffffffffffffffffffffffffff168273ffffffffffffffffffffffffffffffffffffffff1603610d55576040517f08c379a0000000000000000000000000000000000000000000000000000000008152600401610d4c9061283b565b60405180910390fd5b610d628383836001611488565b8273ffffffffffffffffffffffffffffffffffffffff16610d8282610696565b73ffffffffffffffffffffffffffffffffffffffff1614610dd8576040517f08c379a0000000000000000000000000000000000000000000000000000000008152600401610dcf906127a9565b60405180910390fd5b6004600082815260200190815260200160002060006101000a81549073ffffffffffffffffffffffffffffffffffffffff02191690556001600360008573ffffffffffffffffffffffffffffffffffffffff1673ffffffffffffffffffffffffffffffffffffffff168152602001908152602001600020600082825403925050819055506001600360008473ffffffffffffffffffffffffffffffffffffffff1673ffffffffffffffffffffffffffffffffffffffff16815260200190815260200160002060008282540192505081905550816002600083815260200190815260200160002060006101000a81548173ffffffffffffffffffffffffffffffffffffffff021916908373ffffffffffffffffffffffffffffffffffffffff160217905550808273ffffffffffffffffffffffffffffffffffffffff168473ffffffffffffffffffffffffffffffffffffffff167fddf252ad1be2c89b69c2b068fc378daa952ba7f163c4a11628f55a4df523b3ef60405160405180910390a4610f6483838360016115ae565b505050565b60006002600083815260200190815260200160002060009054906101000a900473ffffffffffffffffffffffffffffffffffffffff169050919050565b8173ffffffffffffffffffffffffffffffffffffffff168373ffffffffffffffffffffffffffffffffffffffff1603611014576040517f08c379a000000000000000000000000000000000000000000000000000000000815260040161100b906128a7565b60405180910390fd5b80600560008573ffffffffffffffffffffffffffffffffffffffff1673ffffffffffffffffffffffffffffffffffffffff16815260200190815260200160002060008473ffffffffffffffffffffffffffffffffffffffff1673ffffffffffffffffffffffffffffffffffffffff16815260200190815260200160002060006101000a81548160ff0219169083151502179055508173ffffffffffffffffffffffffffffffffffffffff168373ffffffffffffffffffffffffffffffffffffffff167f17307eab39ab6107e8899845ad3d59bd9653f200f220920489ca2b5937696c31836040516111059190611d2a565b60405180910390a3505050565b61111d848484610c70565b611129848484846115b4565b611168576040517f08c379a000000000000000000000000000000000000000000000000000000000815260040161115f90612939565b60405180910390fd5b50505050565b606061117982610acf565b600060066000848152602001908152602001600020805461119990612349565b80601f01602080910402602001604051908101604052809291908181526020018280546111c590612349565b80156112125780601f106111e757610100808354040283529160200191611212565b820191906000526020600020905b8154815290600101906020018083116111f557829003601f168201915b50505050509050600061122361173b565b9050600081510361123857819250505061127b565b60008251111561126d578082604051602001611255929190612995565b6040516020818303038152906040529250505061127b565b61127684611752565b925050505b919050565b60008082905060005b81518110156113b05760008282815181106112a7576112a66129b9565b5b602001015160f81c60f81b90507f61000000000000000000000000000000000000000000000000000000000000007effffffffffffffffffffffffffffffffffffffffffffffffffffffffffffff1916817effffffffffffffffffffffffffffffffffffffffffffffffffffffffffffff19161015801561138c57507f7a000000000000000000000000000000000000000000000000000000000000007effffffffffffffffffffffffffffffffffffffffffffffffffffffffffffff1916817effffffffffffffffffffffffffffffffffffffffffffffffffffffffffffff191611155b61139c57600093505050506113b7565b5080806113a8906126ef565b915050611289565b5060019150505b919050565b6113d68282604051806020016040528060008152506117ba565b5050565b6113e382611447565b611422576040517f08c379a000000000000000000000000000000000000000000000000000000000815260040161141990612a5a565b60405180910390fd5b806006600084815260200190815260200160002090816114429190612c26565b505050565b60008073ffffffffffffffffffffffffffffffffffffffff1661146983610f69565b73ffffffffffffffffffffffffffffffffffffffff1614159050919050565b60018111156115a857600073ffffffffffffffffffffffffffffffffffffffff168473ffffffffffffffffffffffffffffffffffffffff161461151c5780600360008673ffffffffffffffffffffffffffffffffffffffff1673ffffffffffffffffffffffffffffffffffffffff16815260200190815260200160002060008282546115149190612cf8565b925050819055505b600073ffffffffffffffffffffffffffffffffffffffff168373ffffffffffffffffffffffffffffffffffffffff16146115a75780600360008573ffffffffffffffffffffffffffffffffffffffff1673ffffffffffffffffffffffffffffffffffffffff168152602001908152602001600020600082825461159f9190612d2c565b925050819055505b5b50505050565b50505050565b60006115d58473ffffffffffffffffffffffffffffffffffffffff16611815565b1561172e578373ffffffffffffffffffffffffffffffffffffffff1663150b7a026115fe610b1a565b8786866040518563ffffffff1660e01b81526004016116209493929190612db5565b6020604051808303816000875af192505050801561165c57506040513d601f19601f820116820180604052508101906116599190612e16565b60015b6116de573d806000811461168c576040519150601f19603f3d011682016040523d82523d6000602084013e611691565b606091505b5060008151036116d6576040517f08c379a00000000000000000000000000000000000000000000000000000000081526004016116cd90612939565b60405180910390fd5b805181602001fd5b63150b7a0260e01b7bffffffffffffffffffffffffffffffffffffffffffffffffffffffff1916817bffffffffffffffffffffffffffffffffffffffffffffffffffffffff191614915050611733565b600190505b949350505050565b606060405180602001604052806000815250905090565b606061175d82610acf565b600061176761173b565b9050600081511161178757604051806020016040528060008152506117b2565b8061179184611838565b6040516020016117a2929190612995565b6040516020818303038152906040525b915050919050565b6117c48383611906565b6117d160008484846115b4565b611810576040517f08c379a000000000000000000000000000000000000000000000000000000000815260040161180790612939565b60405180910390fd5b505050565b6000808273ffffffffffffffffffffffffffffffffffffffff163b119050919050565b60606000600161184784611b23565b01905060008167ffffffffffffffff81111561186657611865612042565b5b6040519080825280601f01601f1916602001820160405280156118985781602001600182028036833780820191505090505b509050600082602001820190505b6001156118fb578080600190039150507f3031323334353637383961626364656600000000000000000000000000000000600a86061a8153600a85816118ef576118ee612e43565b5b049450600085036118a6575b819350505050919050565b600073ffffffffffffffffffffffffffffffffffffffff168273ffffffffffffffffffffffffffffffffffffffff1603611975576040517f08c379a000000000000000000000000000000000000000000000000000000000815260040161196c90612ebe565b60405180910390fd5b61197e81611447565b156119be576040517f08c379a00000000000000000000000000000000000000000000000000000000081526004016119b590612f2a565b60405180910390fd5b6119cc600083836001611488565b6119d581611447565b15611a15576040517f08c379a0000000000000000000000000000000000000000000000000000000008152600401611a0c90612f2a565b60405180910390fd5b6001600360008473ffffffffffffffffffffffffffffffffffffffff1673ffffffffffffffffffffffffffffffffffffffff16815260200190815260200160002060008282540192505081905550816002600083815260200190815260200160002060006101000a81548173ffffffffffffffffffffffffffffffffffffffff021916908373ffffffffffffffffffffffffffffffffffffffff160217905550808273ffffffffffffffffffffffffffffffffffffffff16600073ffffffffffffffffffffffffffffffffffffffff167fddf252ad1be2c89b69c2b068fc378daa952ba7f163c4a11628f55a4df523b3ef60405160405180910390a4611b1f6000838360016115ae565b5050565b600080600090507a184f03e93ff9f4daa797ed6e38ed64bf6a1f0100000000000000008310611b81577a184f03e93ff9f4daa797ed6e38ed64bf6a1f0100000000000000008381611b7757611b76612e43565b5b0492506040810190505b6d04ee2d6d415b85acef81000000008310611bbe576d04ee2d6d415b85acef81000000008381611bb457611bb3612e43565b5b0492506020810190505b662386f26fc100008310611bed57662386f26fc100008381611be357611be2612e43565b5b0492506010810190505b6305f5e1008310611c16576305f5e1008381611c0c57611c0b612e43565b5b0492506008810190505b6127108310611c3b576127108381611c3157611c30612e43565b5b0492506004810190505b60648310611c5e5760648381611c5457611c53612e43565b5b0492506002810190505b600a8310611c6d576001810190505b80915050919050565b6000604051905090565b600080fd5b600080fd5b60007fffffffff0000000000000000000000000000000000000000000000000000000082169050919050565b611cbf81611c8a565b8114611cca57600080fd5b50565b600081359050611cdc81611cb6565b92915050565b600060208284031215611cf857611cf7611c80565b5b6000611d0684828501611ccd565b91505092915050565b60008115159050919050565b611d2481611d0f565b82525050565b6000602082019050611d3f6000830184611d1b565b92915050565b600081519050919050565b600082825260208201905092915050565b60005b83811015611d7f578082015181840152602081019050611d64565b60008484015250505050565b6000601f19601f8301169050919050565b6000611da782611d45565b611db18185611d50565b9350611dc1818560208601611d61565b611dca81611d8b565b840191505092915050565b60006020820190508181036000830152611def8184611d9c565b905092915050565b6000819050919050565b611e0a81611df7565b8114611e1557600080fd5b50565b600081359050611e2781611e01565b92915050565b600060208284031215611e4357611e42611c80565b5b6000611e5184828501611e18565b91505092915050565b600073ffffffffffffffffffffffffffffffffffffffff82169050919050565b6000611e8582611e5a565b9050919050565b611e9581611e7a565b82525050565b6000602082019050611eb06000830184611e8c565b92915050565b611ebf81611e7a565b8114611eca57600080fd5b50565b600081359050611edc81611eb6565b92915050565b60008060408385031215611ef957611ef8611c80565b5b6000611f0785828601611ecd565b9250506020611f1885828601611e18565b9150509250929050565b600080600060608486031215611f3b57611f3a611c80565b5b6000611f4986828701611ecd565b9350506020611f5a86828701611ecd565b9250506040611f6b86828701611e18565b9150509250925092565b600060208284031215611f8b57611f8a611c80565b5b6000611f9984828501611ecd565b91505092915050565b611fab81611df7565b82525050565b6000602082019050611fc66000830184611fa2565b92915050565b611fd581611d0f565b8114611fe057600080fd5b50565b600081359050611ff281611fcc565b92915050565b6000806040838503121561200f5761200e611c80565b5b600061201d85828601611ecd565b925050602061202e85828601611fe3565b9150509250929050565b600080fd5b600080fd5b7f4e487b7100000000000000000000000000000000000000000000000000000000600052604160045260246000fd5b61207a82611d8b565b810181811067ffffffffffffffff8211171561209957612098612042565b5b80604052505050565b60006120ac611c76565b90506120b88282612071565b919050565b600067ffffffffffffffff8211156120d8576120d7612042565b5b6120e182611d8b565b9050602081019050919050565b82818337600083830152505050565b600061211061210b846120bd565b6120a2565b90508281526020810184848401111561212c5761212b61203d565b5b6121378482856120ee565b509392505050565b600082601f83011261215457612153612038565b5b81356121648482602086016120fd565b91505092915050565b6000806000806080858703121561218757612186611c80565b5b600061219587828801611ecd565b94505060206121a687828801611ecd565b93505060406121b787828801611e18565b925050606085013567ffffffffffffffff8111156121d8576121d7611c85565b5b6121e48782880161213f565b91505092959194509250565b6000806040838503121561220757612206611c80565b5b600061221585828601611ecd565b925050602061222685828601611ecd565b9150509250929050565b600067ffffffffffffffff82111561224b5761224a612042565b5b61225482611d8b565b9050602081019050919050565b600061227461226f84612230565b6120a2565b9050828152602081018484840111156122905761228f61203d565b5b61229b8482856120ee565b509392505050565b600082601f8301126122b8576122b7612038565b5b81356122c8848260208601612261565b91505092915050565b6000602082840312156122e7576122e6611c80565b5b600082013567ffffffffffffffff81111561230557612304611c85565b5b612311848285016122a3565b91505092915050565b7f4e487b7100000000000000000000000000000000000000000000000000000000600052602260045260246000fd5b6000600282049050600182168061236157607f821691505b6020821081036123745761237361231a565b5b50919050565b7f4552433732313a20617070726f76616c20746f2063757272656e74206f776e6560008201527f7200000000000000000000000000000000000000000000000000000000000000602082015250565b60006123d6602183611d50565b91506123e18261237a565b604082019050919050565b60006020820190508181036000830152612405816123c9565b9050919050565b7f4552433732313a20617070726f76652063616c6c6572206973206e6f7420746f60008201527f6b656e206f776e6572206f7220617070726f76656420666f7220616c6c000000602082015250565b6000612468603d83611d50565b91506124738261240c565b604082019050919050565b600060208201905081810360008301526124978161245b565b9050919050565b7f4552433732313a2063616c6c6572206973206e6f7420746f6b656e206f776e6560008201527f72206f7220617070726f76656400000000000000000000000000000000000000602082015250565b60006124fa602d83611d50565b91506125058261249e565b604082019050919050565b60006020820190508181036000830152612529816124ed565b9050919050565b7f4552433732313a20696e76616c696420746f6b656e2049440000000000000000600082015250565b6000612566601883611d50565b915061257182612530565b602082019050919050565b6000602082019050818103600083015261259581612559565b9050919050565b7f4552433732313a2061646472657373207a65726f206973206e6f74206120766160008201527f6c6964206f776e65720000000000000000000000000000000000000000000000602082015250565b60006125f8602983611d50565b91506126038261259c565b604082019050919050565b60006020820190508181036000830152612627816125eb565b9050919050565b7f496e707574206d757374206265206120737472696e672077697468206c65747460008201527f657273206f6e6c79000000000000000000000000000000000000000000000000602082015250565b600061268a602883611d50565b91506126958261262e565b604082019050919050565b600060208201905081810360008301526126b98161267d565b9050919050565b7f4e487b7100000000000000000000000000000000000000000000000000000000600052601160045260246000fd5b60006126fa82611df7565b91507fffffffffffffffffffffffffffffffffffffffffffffffffffffffffffffffff820361272c5761272b6126c0565b5b600182019050919050565b7f4552433732313a207472616e736665722066726f6d20696e636f72726563742060008201527f6f776e6572000000000000000000000000000000000000000000000000000000602082015250565b6000612793602583611d50565b915061279e82612737565b604082019050919050565b600060208201905081810360008301526127c281612786565b9050919050565b7f4552433732313a207472616e7366657220746f20746865207a65726f2061646460008201527f7265737300000000000000000000000000000000000000000000000000000000602082015250565b6000612825602483611d50565b9150612830826127c9565b604082019050919050565b6000602082019050818103600083015261285481612818565b9050919050565b7f4552433732313a20617070726f766520746f2063616c6c657200000000000000600082015250565b6000612891601983611d50565b915061289c8261285b565b602082019050919050565b600060208201905081810360008301526128c081612884565b9050919050565b7f4552433732313a207472616e7366657220746f206e6f6e20455243373231526560008201527f63656976657220696d706c656d656e7465720000000000000000000000000000602082015250565b6000612923603283611d50565b915061292e826128c7565b604082019050919050565b6000602082019050818103600083015261295281612916565b9050919050565b600081905092915050565b600061296f82611d45565b6129798185612959565b9350612989818560208601611d61565b80840191505092915050565b60006129a18285612964565b91506129ad8284612964565b91508190509392505050565b7f4e487b7100000000000000000000000000000000000000000000000000000000600052603260045260246000fd5b7f45524337323155524953746f726167653a2055524920736574206f66206e6f6e60008201527f6578697374656e7420746f6b656e000000000000000000000000000000000000602082015250565b6000612a44602e83611d50565b9150612a4f826129e8565b604082019050919050565b60006020820190508181036000830152612a7381612a37565b9050919050565b60008190508160005260206000209050919050565b60006020601f8301049050919050565b600082821b905092915050565b600060088302612adc7fffffffffffffffffffffffffffffffffffffffffffffffffffffffffffffffff82612a9f565b612ae68683612a9f565b95508019841693508086168417925050509392505050565b6000819050919050565b6000612b23612b1e612b1984611df7565b612afe565b611df7565b9050919050565b6000819050919050565b612b3d83612b08565b612b51612b4982612b2a565b848454612aac565b825550505050565b600090565b612b66612b59565b612b71818484612b34565b505050565b5b81811015612b9557612b8a600082612b5e565b600181019050612b77565b5050565b601f821115612bda57612bab81612a7a565b612bb484612a8f565b81016020851015612bc3578190505b612bd7612bcf85612a8f565b830182612b76565b50505b505050565b600082821c905092915050565b6000612bfd60001984600802612bdf565b1980831691505092915050565b6000612c168383612bec565b9150826002028217905092915050565b612c2f82611d45565b67ffffffffffffffff811115612c4857612c47612042565b5b612c528254612349565b612c5d828285612b99565b600060209050601f831160018114612c905760008415612c7e578287015190505b612c888582612c0a565b865550612cf0565b601f198416612c9e86612a7a565b60005b82811015612cc657848901518255600182019150602085019450602081019050612ca1565b86831015612ce35784890151612cdf601f891682612bec565b8355505b6001600288020188555050505b505050505050565b6000612d0382611df7565b9150612d0e83611df7565b9250828203905081811115612d2657612d256126c0565b5b92915050565b6000612d3782611df7565b9150612d4283611df7565b9250828201905080821115612d5a57612d596126c0565b5b92915050565b600081519050919050565b600082825260208201905092915050565b6000612d8782612d60565b612d918185612d6b565b9350612da1818560208601611d61565b612daa81611d8b565b840191505092915050565b6000608082019050612dca6000830187611e8c565b612dd76020830186611e8c565b612de46040830185611fa2565b8181036060830152612df68184612d7c565b905095945050505050565b600081519050612e1081611cb6565b92915050565b600060208284031215612e2c57612e2b611c80565b5b6000612e3a84828501612e01565b91505092915050565b7f4e487b7100000000000000000000000000000000000000000000000000000000600052601260045260246000fd5b7f4552433732313a206d696e7420746f20746865207a65726f2061646472657373600082015250565b6000612ea8602083611d50565b9150612eb382612e72565b602082019050919050565b60006020820190508181036000830152612ed781612e9b565b9050919050565b7f4552433732313a20746f6b656e20616c7265616479206d696e74656400000000600082015250565b6000612f14601c83611d50565b9150612f1f82612ede565b602082019050919050565b60006020820190508181036000830152612f4381612f07565b905091905056fea2646970667358221220348851caf26b6d4e5347ad3fa938aca0e3a93810a67e099c9dfc30cf58bf7e2f64736f6c63430008110033",
  "linkReferences": {},
  "deployedLinkReferences": {}
}